{
  "_format": "hh-sol-artifact-1",
  "contractName": "testament",
  "sourceName": "contracts/testament.sol",
  "abi": [
    {
      "anonymous": false,
      "inputs": [
        {
          "indexed": false,
          "internalType": "uint256",
          "name": "mount",
          "type": "uint256"
        },
        {
          "indexed": false,
          "internalType": "string",
          "name": "note",
          "type": "string"
        },
        {
          "indexed": false,
          "internalType": "string",
          "name": "time",
          "type": "string"
        }
      ],
      "name": "CreateTestament",
      "type": "event"
    },
    {
      "anonymous": false,
      "inputs": [
        {
          "indexed": false,
          "internalType": "string",
          "name": "name",
          "type": "string"
        },
        {
          "indexed": false,
          "internalType": "uint256",
          "name": "percent",
          "type": "uint256"
        },
        {
          "indexed": false,
          "internalType": "string",
          "name": "identifi",
          "type": "string"
        }
      ],
      "name": "NewBeneficiary",
      "type": "event"
    },
    {
      "inputs": [
        {
          "internalType": "string",
          "name": "_name",
          "type": "string"
        },
        {
          "internalType": "uint256",
          "name": "_percent",
          "type": "uint256"
        },
        {
          "internalType": "string",
          "name": "_identifi",
          "type": "string"
        }
      ],
      "name": "addBeneficiary",
      "outputs": [],
      "stateMutability": "nonpayable",
      "type": "function"
    },
    {
      "inputs": [
        {
          "internalType": "uint256",
          "name": "",
          "type": "uint256"
        }
      ],
      "name": "beneficiaries",
      "outputs": [
        {
          "internalType": "string",
          "name": "name",
          "type": "string"
        },
        {
          "internalType": "uint256",
          "name": "percent",
          "type": "uint256"
        },
        {
          "internalType": "string",
          "name": "identifi",
          "type": "string"
        }
      ],
      "stateMutability": "view",
      "type": "function"
    },
    {
      "inputs": [],
      "name": "getNote",
      "outputs": [
        {
          "internalType": "string",
          "name": "",
          "type": "string"
        }
      ],
      "stateMutability": "view",
      "type": "function"
    },
    {
      "inputs": [],
      "name": "getTime",
      "outputs": [
        {
          "internalType": "string",
          "name": "",
          "type": "string"
        }
      ],
      "stateMutability": "view",
      "type": "function"
    },
    {
      "inputs": [],
      "name": "mount",
      "outputs": [
        {
          "internalType": "uint256",
          "name": "",
          "type": "uint256"
        }
      ],
      "stateMutability": "view",
      "type": "function"
    },
    {
      "inputs": [
        {
          "internalType": "uint256",
          "name": "_mount",
          "type": "uint256"
        }
      ],
      "name": "setMount",
      "outputs": [],
      "stateMutability": "nonpayable",
      "type": "function"
    },
    {
      "inputs": [
        {
          "internalType": "string",
          "name": "_note",
          "type": "string"
        }
      ],
      "name": "setNote",
      "outputs": [],
      "stateMutability": "nonpayable",
      "type": "function"
    },
    {
      "inputs": [
        {
          "internalType": "string",
          "name": "_time",
          "type": "string"
        }
      ],
      "name": "setTime",
      "outputs": [],
      "stateMutability": "nonpayable",
      "type": "function"
    }
  ],
  "bytecode": "0x608060405234801561001057600080fd5b506109b7806100206000396000f3fe608060405234801561001057600080fd5b50600436106100885760003560e01c8063b33713331161005b578063b3371333146100ff578063df3ac4761461011b578063eef81ed014610139578063efeb5e581461015757610088565b806309db27791461008d57806309f2899e146100a95780632d7b299d146100c5578063557ed1ba146100e1575b600080fd5b6100a760048036038101906100a291906106e7565b610189565b005b6100c360048036038101906100be9190610668565b610193565b005b6100df60048036038101906100da9190610627565b61025f565b005b6100e9610279565b6040516100f69190610758565b60405180910390f35b61011960048036038101906101149190610627565b61030b565b005b610123610325565b6040516101309190610758565b60405180910390f35b6101416103b7565b60405161014e91906107bf565b60405180910390f35b610171600480360381019061016c91906106e7565b6103bd565b6040516101809392919061077a565b60405180910390f35b8060008190555050565b6003604051806060016040528085815260200184815260200183815250908060018154018082558091505060019003906000526020600020906003020160009091909190915060008201518160000190805190602001906101f5929190610507565b5060208201518160010155604082015181600201908051906020019061021c929190610507565b5050507ffdebe90b9f497c6447ff55cb83df605135e55d728f8e4b7fecbfc50a7bf24ffe8383836040516102529392919061077a565b60405180910390a1505050565b8060019080519060200190610275929190610507565b5050565b60606002805461028890610898565b80601f01602080910402602001604051908101604052809291908181526020018280546102b490610898565b80156103015780601f106102d657610100808354040283529160200191610301565b820191906000526020600020905b8154815290600101906020018083116102e457829003601f168201915b5050505050905090565b8060029080519060200190610321929190610507565b5050565b60606001805461033490610898565b80601f016020809104026020016040519081016040528092919081815260200182805461036090610898565b80156103ad5780601f10610382576101008083540402835291602001916103ad565b820191906000526020600020905b81548152906001019060200180831161039057829003601f168201915b5050505050905090565b60005481565b600381815481106103cd57600080fd5b90600052602060002090600302016000915090508060000180546103f090610898565b80601f016020809104026020016040519081016040528092919081815260200182805461041c90610898565b80156104695780601f1061043e57610100808354040283529160200191610469565b820191906000526020600020905b81548152906001019060200180831161044c57829003601f168201915b50505050509080600101549080600201805461048490610898565b80601f01602080910402602001604051908101604052809291908181526020018280546104b090610898565b80156104fd5780601f106104d2576101008083540402835291602001916104fd565b820191906000526020600020905b8154815290600101906020018083116104e057829003601f168201915b5050505050905083565b82805461051390610898565b90600052602060002090601f016020900481019282610535576000855561057c565b82601f1061054e57805160ff191683800117855561057c565b8280016001018555821561057c579182015b8281111561057b578251825591602001919060010190610560565b5b509050610589919061058d565b5090565b5b808211156105a657600081600090555060010161058e565b5090565b60006105bd6105b8846107ff565b6107da565b9050828152602081018484840111156105d557600080fd5b6105e0848285610856565b509392505050565b600082601f8301126105f957600080fd5b81356106098482602086016105aa565b91505092915050565b6000813590506106218161096a565b92915050565b60006020828403121561063957600080fd5b600082013567ffffffffffffffff81111561065357600080fd5b61065f848285016105e8565b91505092915050565b60008060006060848603121561067d57600080fd5b600084013567ffffffffffffffff81111561069757600080fd5b6106a3868287016105e8565b93505060206106b486828701610612565b925050604084013567ffffffffffffffff8111156106d157600080fd5b6106dd868287016105e8565b9150509250925092565b6000602082840312156106f957600080fd5b600061070784828501610612565b91505092915050565b600061071b82610830565b610725818561083b565b9350610735818560208601610865565b61073e81610959565b840191505092915050565b6107528161084c565b82525050565b600060208201905081810360008301526107728184610710565b905092915050565b600060608201905081810360008301526107948186610710565b90506107a36020830185610749565b81810360408301526107b58184610710565b9050949350505050565b60006020820190506107d46000830184610749565b92915050565b60006107e46107f5565b90506107f082826108ca565b919050565b6000604051905090565b600067ffffffffffffffff82111561081a5761081961092a565b5b61082382610959565b9050602081019050919050565b600081519050919050565b600082825260208201905092915050565b6000819050919050565b82818337600083830152505050565b60005b83811015610883578082015181840152602081019050610868565b83811115610892576000848401525b50505050565b600060028204905060018216806108b057607f821691505b602082108114156108c4576108c36108fb565b5b50919050565b6108d382610959565b810181811067ffffffffffffffff821117156108f2576108f161092a565b5b80604052505050565b7f4e487b7100000000000000000000000000000000000000000000000000000000600052602260045260246000fd5b7f4e487b7100000000000000000000000000000000000000000000000000000000600052604160045260246000fd5b6000601f19601f8301169050919050565b6109738161084c565b811461097e57600080fd5b5056fea264697066735822122076105fce13533fd618448431e44a58194f31d23c2abaed6cb3ca8e63e0bb3de664736f6c63430008040033",
  "linkReferences": {},
  "deployedLinkReferences": {}
}