{
  "_format": "hh-sol-artifact-1",
  "contractName": "transferCryptoTestament",
  "sourceName": "contracts/transferCryptoTestament .sol",
  "abi": [
    {
      "inputs": [],
      "stateMutability": "nonpayable",
      "type": "constructor"
    },
    {
      "anonymous": false,
      "inputs": [
        {
          "indexed": false,
          "internalType": "string",
          "name": "action",
          "type": "string"
        },
        {
          "indexed": false,
          "internalType": "address",
          "name": "mem",
          "type": "address"
        },
        {
          "indexed": false,
          "internalType": "uint256",
          "name": "percent",
          "type": "uint256"
        }
      ],
      "name": "updateData",
      "type": "event"
    },
    {
      "inputs": [
        {
          "internalType": "address",
          "name": "mem",
          "type": "address"
        },
        {
          "internalType": "uint256",
          "name": "percent",
          "type": "uint256"
        }
      ],
      "name": "addBeneficiary",
      "outputs": [],
      "stateMutability": "nonpayable",
      "type": "function"
    },
    {
      "inputs": [],
      "name": "getAddrBeneficiaries",
      "outputs": [
        {
          "internalType": "address[]",
          "name": "mem",
          "type": "address[]"
        }
      ],
      "stateMutability": "view",
      "type": "function"
    },
    {
      "inputs": [],
      "name": "getDeath",
      "outputs": [
        {
          "internalType": "uint256",
          "name": "lefttime",
          "type": "uint256"
        },
        {
          "internalType": "string",
          "name": "mess",
          "type": "string"
        }
      ],
      "stateMutability": "nonpayable",
      "type": "function"
    },
    {
      "inputs": [],
      "name": "getMount",
      "outputs": [
        {
          "internalType": "uint256",
          "name": "",
          "type": "uint256"
        }
      ],
      "stateMutability": "view",
      "type": "function"
    },
    {
      "inputs": [],
      "name": "getOwner",
      "outputs": [
        {
          "internalType": "address",
          "name": "",
          "type": "address"
        }
      ],
      "stateMutability": "view",
      "type": "function"
    },
    {
      "inputs": [
        {
          "internalType": "address",
          "name": "mem",
          "type": "address"
        }
      ],
      "name": "getPercentAddress",
      "outputs": [
        {
          "internalType": "uint256",
          "name": "",
          "type": "uint256"
        }
      ],
      "stateMutability": "view",
      "type": "function"
    },
    {
      "inputs": [],
      "name": "getRemain",
      "outputs": [
        {
          "internalType": "uint256",
          "name": "",
          "type": "uint256"
        }
      ],
      "stateMutability": "view",
      "type": "function"
    },
    {
      "inputs": [
        {
          "internalType": "address",
          "name": "mem",
          "type": "address"
        }
      ],
      "name": "rmBeneficiary",
      "outputs": [],
      "stateMutability": "nonpayable",
      "type": "function"
    },
    {
      "inputs": [],
      "name": "rollUp",
      "outputs": [],
      "stateMutability": "nonpayable",
      "type": "function"
    },
    {
      "inputs": [],
      "name": "testament",
      "outputs": [],
      "stateMutability": "nonpayable",
      "type": "function"
    },
    {
      "inputs": [],
      "name": "turnDeath",
      "outputs": [],
      "stateMutability": "nonpayable",
      "type": "function"
    },
    {
      "inputs": [
        {
          "internalType": "uint256",
          "name": "_mount",
          "type": "uint256"
        }
      ],
      "name": "withdraw",
      "outputs": [],
      "stateMutability": "nonpayable",
      "type": "function"
    },
    {
      "stateMutability": "payable",
      "type": "receive"
    }
  ],
  "bytecode": "0x60806040523480156200001157600080fd5b5060006002819055506000600460006101000a81548160ff021916908315150217905550336000806101000a81548173ffffffffffffffffffffffffffffffffffffffff021916908373ffffffffffffffffffffffffffffffffffffffff16021790555060646001819055506303c30a7c426200008f91906200009b565b60058190555062000131565b6000620000a882620000f8565b9150620000b583620000f8565b9250827fffffffffffffffffffffffffffffffffffffffffffffffffffffffffffffffff03821115620000ed57620000ec62000102565b5b828201905092915050565b6000819050919050565b7f4e487b7100000000000000000000000000000000000000000000000000000000600052601160045260246000fd5b611b2880620001416000396000f3fe6080604052600436106100ab5760003560e01c806360a2a6221161006457806360a2a622146101ef5780637fc0f98b1461020657806388a868df14610231578063893d20e81461025a57806396074e70146102855780639f99099f146102ae576100eb565b8063146d3aab146100f05780631969813b1461011b578063278dd0bf146101475780632e1a7d4d146101725780634779a55d1461019b57806350690ae8146101b2576100eb565b366100eb577fec1b13204ed4ce08474971726802338fd49fa16691da65c5f145b588d858f3d833346040516100e19291906115a9565b60405180910390a1005b600080fd5b3480156100fc57600080fd5b506101056102c5565b6040516101129190611625565b60405180910390f35b34801561012757600080fd5b506101306102cd565b60405161013e929190611640565b60405180910390f35b34801561015357600080fd5b5061015c6103e5565b6040516101699190611417565b60405180910390f35b34801561017e57600080fd5b5061019960048036038101906101949190611176565b610473565b005b3480156101a757600080fd5b506101b06105c9565b005b3480156101be57600080fd5b506101d960048036038101906101d49190611111565b6106c4565b6040516101e69190611625565b60405180910390f35b3480156101fb57600080fd5b5061020461070d565b005b34801561021257600080fd5b5061021b61083c565b6040516102289190611625565b60405180910390f35b34801561023d57600080fd5b5061025860048036038101906102539190611111565b610846565b005b34801561026657600080fd5b5061026f610c1a565b60405161027c91906113fc565b60405180910390f35b34801561029157600080fd5b506102ac60048036038101906102a7919061113a565b610c43565b005b3480156102ba57600080fd5b506102c3610ed6565b005b600047905090565b60006060600460009054906101000a900460ff16156103275760006040518060400160405280600f81526020017f6f776e6572207761732064656174680000000000000000000000000000000000815250915091506103e1565b4260055411610398576001600460006101000a81548160ff0219169083151502179055504260055461035991906117a6565b6040518060400160405280600f81526020017f6f776e6572207761732064656174680000000000000000000000000000000000815250915091506103e1565b426005546103a691906117a6565b6040518060400160405280600b81526020017f6f776e657220616c697665000000000000000000000000000000000000000000815250915091505b9091565b6060600380548060200260200160405190810160405280929190818152602001828054801561046957602002820191906000526020600020905b8160009054906101000a900473ffffffffffffffffffffffffffffffffffffffff1673ffffffffffffffffffffffffffffffffffffffff168152602001906001019080831161041f575b5050505050905090565b600460009054906101000a900460ff16156104c3576040517f08c379a00000000000000000000000000000000000000000000000000000000081526004016104ba90611605565b60405180910390fd5b47811115610506576040517f08c379a00000000000000000000000000000000000000000000000000000000081526004016104fd90611589565b60405180910390fd5b60008054906101000a900473ffffffffffffffffffffffffffffffffffffffff1673ffffffffffffffffffffffffffffffffffffffff166108fc829081150290604051600060405180830381858888f1935050505015801561056c573d6000803e3d6000fd5b507fec1b13204ed4ce08474971726802338fd49fa16691da65c5f145b588d858f3d860008054906101000a900473ffffffffffffffffffffffffffffffffffffffff16826040516105be929190611511565b60405180910390a150565b600460009054906101000a900460ff1615610619576040517f08c379a000000000000000000000000000000000000000000000000000000000815260040161061090611605565b60405180910390fd5b60008054906101000a900473ffffffffffffffffffffffffffffffffffffffff1673ffffffffffffffffffffffffffffffffffffffff163373ffffffffffffffffffffffffffffffffffffffff16146106a7576040517f08c379a000000000000000000000000000000000000000000000000000000000815260040161069e906114d1565b60405180910390fd5b6001600460006101000a81548160ff021916908315150217905550565b6000600660008373ffffffffffffffffffffffffffffffffffffffff1673ffffffffffffffffffffffffffffffffffffffff168152602001908152602001600020549050919050565b600460009054906101000a900460ff161561075d576040517f08c379a000000000000000000000000000000000000000000000000000000000815260040161075490611605565b60405180910390fd5b60008054906101000a900473ffffffffffffffffffffffffffffffffffffffff1673ffffffffffffffffffffffffffffffffffffffff163373ffffffffffffffffffffffffffffffffffffffff16146107eb576040517f08c379a00000000000000000000000000000000000000000000000000000000081526004016107e2906114d1565b60405180910390fd5b600554421115610802576107fd6105c9565b61083a565b6303c30a7c60055461081491906117a6565b421115610839576303c30a7c6005600082825461083191906116c5565b925050819055505b5b565b6000600154905090565b600460009054906101000a900460ff1615610896576040517f08c379a000000000000000000000000000000000000000000000000000000000815260040161088d90611605565b60405180910390fd5b6000600660008373ffffffffffffffffffffffffffffffffffffffff1673ffffffffffffffffffffffffffffffffffffffff1681526020019081526020016000205411610918576040517f08c379a000000000000000000000000000000000000000000000000000000000815260040161090f906114f1565b60405180910390fd5b600660008273ffffffffffffffffffffffffffffffffffffffff1673ffffffffffffffffffffffffffffffffffffffff168152602001908152602001600020546001600082825461096991906116c5565b925050819055507fec1b13204ed4ce08474971726802338fd49fa16691da65c5f145b588d858f3d881600660008473ffffffffffffffffffffffffffffffffffffffff1673ffffffffffffffffffffffffffffffffffffffff168152602001908152602001600020546040516109e0929190611439565b60405180910390a1600080600090505b600254811015610aad578273ffffffffffffffffffffffffffffffffffffffff1660038281548110610a4b577f4e487b7100000000000000000000000000000000000000000000000000000000600052603260045260246000fd5b9060005260206000200160009054906101000a900473ffffffffffffffffffffffffffffffffffffffff1673ffffffffffffffffffffffffffffffffffffffff161415610a9a57809150610aad565b8080610aa590611849565b9150506109f0565b5060008190505b6001600254610ac391906117a6565b811015610bd0576003600182610ad991906116c5565b81548110610b10577f4e487b7100000000000000000000000000000000000000000000000000000000600052603260045260246000fd5b9060005260206000200160009054906101000a900473ffffffffffffffffffffffffffffffffffffffff1660038281548110610b75577f4e487b7100000000000000000000000000000000000000000000000000000000600052603260045260246000fd5b9060005260206000200160006101000a81548173ffffffffffffffffffffffffffffffffffffffff021916908373ffffffffffffffffffffffffffffffffffffffff1602179055508080610bc890611849565b915050610ab4565b506000600660008473ffffffffffffffffffffffffffffffffffffffff1673ffffffffffffffffffffffffffffffffffffffff168152602001908152602001600020819055505050565b60008060009054906101000a900473ffffffffffffffffffffffffffffffffffffffff16905090565b600460009054906101000a900460ff1615610c93576040517f08c379a0000000000000000000000000000000000000000000000000000000008152600401610c8a90611605565b60405180910390fd5b60008054906101000a900473ffffffffffffffffffffffffffffffffffffffff1673ffffffffffffffffffffffffffffffffffffffff163373ffffffffffffffffffffffffffffffffffffffff1614610d21576040517f08c379a0000000000000000000000000000000000000000000000000000000008152600401610d18906114d1565b60405180910390fd5b806001541015610d66576040517f08c379a0000000000000000000000000000000000000000000000000000000008152600401610d5d906115e5565b60405180910390fd5b6000600660008473ffffffffffffffffffffffffffffffffffffffff1673ffffffffffffffffffffffffffffffffffffffff168152602001908152602001600020541415610e2a576003829080600181540180825580915050600190039060005260206000200160009091909190916101000a81548173ffffffffffffffffffffffffffffffffffffffff021916908373ffffffffffffffffffffffffffffffffffffffff16021790555060026000815480929190610e2490611849565b91905055505b80600660008473ffffffffffffffffffffffffffffffffffffffff1673ffffffffffffffffffffffffffffffffffffffff1681526020019081526020016000206000828254610e7991906116c5565b925050819055508060016000828254610e9291906117a6565b925050819055507fec1b13204ed4ce08474971726802338fd49fa16691da65c5f145b588d858f3d88282604051610eca929190611495565b60405180910390a15050565b600460009054906101000a900460ff16610f25576040517f08c379a0000000000000000000000000000000000000000000000000000000008152600401610f1c90611475565b60405180910390fd5b600047905060005b6003805490508110156110e357600060038281548110610f76577f4e487b7100000000000000000000000000000000000000000000000000000000600052603260045260246000fd5b9060005260206000200160009054906101000a900473ffffffffffffffffffffffffffffffffffffffff1690508073ffffffffffffffffffffffffffffffffffffffff166108fc6064600660008573ffffffffffffffffffffffffffffffffffffffff1673ffffffffffffffffffffffffffffffffffffffff168152602001908152602001600020548661100a919061174c565b611014919061171b565b9081150290604051600060405180830381858888f1935050505015801561103f573d6000803e3d6000fd5b507fec1b13204ed4ce08474971726802338fd49fa16691da65c5f145b588d858f3d8816064600660008573ffffffffffffffffffffffffffffffffffffffff1673ffffffffffffffffffffffffffffffffffffffff16815260200190815260200160002054866110af919061174c565b6110b9919061171b565b6040516110c792919061154d565b60405180910390a15080806110db90611849565b915050610f2d565b5050565b6000813590506110f681611ac4565b92915050565b60008135905061110b81611adb565b92915050565b60006020828403121561112357600080fd5b6000611131848285016110e7565b91505092915050565b6000806040838503121561114d57600080fd5b600061115b858286016110e7565b925050602061116c858286016110fc565b9150509250929050565b60006020828403121561118857600080fd5b6000611196848285016110fc565b91505092915050565b60006111ab83836111b7565b60208301905092915050565b6111c0816117da565b82525050565b6111cf816117da565b82525050565b60006111e082611680565b6111ea81856116a3565b93506111f583611670565b8060005b8381101561122657815161120d888261119f565b975061121883611696565b9250506001810190506111f9565b5085935050505092915050565b600061123e8261168b565b61124881856116b4565b9350611258818560208601611816565b611261816118f0565b840191505092915050565b6000611279600a836116b4565b915061128482611901565b602082019050919050565b600061129c6017836116b4565b91506112a78261192a565b602082019050919050565b60006112bf6006836116b4565b91506112ca82611953565b602082019050919050565b60006112e26012836116b4565b91506112ed8261197c565b602082019050919050565b60006113056009836116b4565b9150611310826119a5565b602082019050919050565b60006113286008836116b4565b9150611333826119ce565b602082019050919050565b600061134b6009836116b4565b9150611356826119f7565b602082019050919050565b600061136e600a836116b4565b915061137982611a20565b602082019050919050565b60006113916007836116b4565b915061139c82611a49565b602082019050919050565b60006113b4600a836116b4565b91506113bf82611a72565b602082019050919050565b60006113d7600f836116b4565b91506113e282611a9b565b602082019050919050565b6113f68161180c565b82525050565b600060208201905061141160008301846111c6565b92915050565b6000602082019050818103600083015261143181846111d5565b905092915050565b600060608201905081810360008301526114528161126c565b905061146160208301856111c6565b61146e60408301846113ed565b9392505050565b6000602082019050818103600083015261148e8161128f565b9050919050565b600060608201905081810360008301526114ae816112b2565b90506114bd60208301856111c6565b6114ca60408301846113ed565b9392505050565b600060208201905081810360008301526114ea816112d5565b9050919050565b6000602082019050818103600083015261150a816112f8565b9050919050565b6000606082019050818103600083015261152a8161131b565b905061153960208301856111c6565b61154660408301846113ed565b9392505050565b600060608201905081810360008301526115668161133e565b905061157560208301856111c6565b61158260408301846113ed565b9392505050565b600060208201905081810360008301526115a281611361565b9050919050565b600060608201905081810360008301526115c281611384565b90506115d160208301856111c6565b6115de60408301846113ed565b9392505050565b600060208201905081810360008301526115fe816113a7565b9050919050565b6000602082019050818103600083015261161e816113ca565b9050919050565b600060208201905061163a60008301846113ed565b92915050565b600060408201905061165560008301856113ed565b81810360208301526116678184611233565b90509392505050565b6000819050602082019050919050565b600081519050919050565b600081519050919050565b6000602082019050919050565b600082825260208201905092915050565b600082825260208201905092915050565b60006116d08261180c565b91506116db8361180c565b9250827fffffffffffffffffffffffffffffffffffffffffffffffffffffffffffffffff038211156117105761170f611892565b5b828201905092915050565b60006117268261180c565b91506117318361180c565b925082611741576117406118c1565b5b828204905092915050565b60006117578261180c565b91506117628361180c565b9250817fffffffffffffffffffffffffffffffffffffffffffffffffffffffffffffffff048311821515161561179b5761179a611892565b5b828202905092915050565b60006117b18261180c565b91506117bc8361180c565b9250828210156117cf576117ce611892565b5b828203905092915050565b60006117e5826117ec565b9050919050565b600073ffffffffffffffffffffffffffffffffffffffff82169050919050565b6000819050919050565b60005b83811015611834578082015181840152602081019050611819565b83811115611843576000848401525b50505050565b60006118548261180c565b91507fffffffffffffffffffffffffffffffffffffffffffffffffffffffffffffffff82141561188757611886611892565b5b600182019050919050565b7f4e487b7100000000000000000000000000000000000000000000000000000000600052601160045260246000fd5b7f4e487b7100000000000000000000000000000000000000000000000000000000600052601260045260246000fd5b6000601f19601f8301169050919050565b7f72656d6f7665204d656d00000000000000000000000000000000000000000000600082015250565b7f6f776e6572207374696c6c206861766520616c69766564000000000000000000600082015250565b7f6164644d656d0000000000000000000000000000000000000000000000000000600082015250565b7f596f75277265206e6f742061206f776e65720000000000000000000000000000600082015250565b7f6e6f742065786973740000000000000000000000000000000000000000000000600082015250565b7f7769746864726177000000000000000000000000000000000000000000000000600082015250565b7f74657374616d656e740000000000000000000000000000000000000000000000600082015250565b7f4e6f7420656e6f75746800000000000000000000000000000000000000000000600082015250565b7f7265636569766500000000000000000000000000000000000000000000000000600082015250565b7f6e6f7420656e6f75746800000000000000000000000000000000000000000000600082015250565b7f6f776e6572207761732064656174680000000000000000000000000000000000600082015250565b611acd816117da565b8114611ad857600080fd5b50565b611ae48161180c565b8114611aef57600080fd5b5056fea26469706673582212202e78ff073ccff70ebe5149fb78bc158f527787b465922c97dafbbd611b89483564736f6c63430008040033",
  "linkReferences": {},
  "deployedLinkReferences": {}
}